:020000040000FA
:060000000A128A11FC2F18
:100EFA00831203138C1E822F832F852F1A08862FA5
:100F0A0000300800831603138717071318121813E3
:100F1A001815813099008312031398178316031347
:100F2A00981683120313181608008316031307145E
:100F3A00F03086008312031386010A128A1187276A
:100F4A000A128A1183120313071CAC2FAD2FAE2F7E
:100F5A0086150A128A117D270A128A11F000700872
:100F6A00F200D72F831203130614A72F8312031339
:100F7A000610A72F831203138614A72F83120313B5
:100F8A008610A72F831203130615A72F83120313A4
:100F9A000611A72F831203138615A72F8312031393
:100FAA008611A72F7208F000F1017108003A03199F
:100FBA00DF2FA72F7008413A0319B72F033A0319F5
:100FCA00BB2F013A0319BF2F073A0319C32F013A5E
:100FDA000319C72F033A0319CB2F013A0319CF2F4D
:100FEA000F3A0319D32FA72F0A128A110028830157
:060FFA000A128A119A2F71
:02400E00793DFA
:00000001FF
